{
  "_format": "hh-sol-artifact-1",
  "contractName": "ParaSwapSellAdapter",
  "sourceName": "contracts/ParaSwapSellAdapter.sol",
  "abi": [
    {
      "inputs": [
        {
          "internalType": "contract IParaSwapAugustusRegistry",
          "name": "augustusRegistry",
          "type": "address"
        }
      ],
      "stateMutability": "nonpayable",
      "type": "constructor"
    },
    {
      "inputs": [],
      "name": "AUGUSTUS_REGISTRY",
      "outputs": [
        {
          "internalType": "contract IParaSwapAugustusRegistry",
          "name": "",
          "type": "address"
        }
      ],
      "stateMutability": "view",
      "type": "function"
    },
    {
      "inputs": [
        {
          "internalType": "bytes",
          "name": "_swapCalldata",
          "type": "bytes"
        },
        {
          "internalType": "contract IParaSwapAugustus",
          "name": "_augustus",
          "type": "address"
        },
        {
          "internalType": "contract IERC20",
          "name": "_assetToSwapFrom",
          "type": "address"
        },
        {
          "internalType": "contract IERC20",
          "name": "_assetToSwapTo",
          "type": "address"
        },
        {
          "internalType": "uint256",
          "name": "_amountToSwap",
          "type": "uint256"
        },
        {
          "internalType": "uint256",
          "name": "_minAmountToReceive",
          "type": "uint256"
        }
      ],
      "name": "sellOnParaSwap",
      "outputs": [
        {
          "internalType": "uint256",
          "name": "_amountReceived",
          "type": "uint256"
        }
      ],
      "stateMutability": "nonpayable",
      "type": "function"
    }
  ],
  "bytecode": "0x60a06040523480156200001157600080fd5b50604051620017c7380380620017c783398181016040528101906200003791906200016a565b8073ffffffffffffffffffffffffffffffffffffffff1663fb04e17b60006040518263ffffffff1660e01b8152600401620000739190620001a7565b60206040518083038186803b1580156200008c57600080fd5b505afa158015620000a1573d6000803e3d6000fd5b505050506040513d601f19601f82011682018060405250810190620000c791906200013e565b15620000d257600080fd5b8073ffffffffffffffffffffffffffffffffffffffff1660808173ffffffffffffffffffffffffffffffffffffffff1660601b81525050506200024c565b600081519050620001218162000218565b92915050565b600081519050620001388162000232565b92915050565b6000602082840312156200015157600080fd5b6000620001618482850162000110565b91505092915050565b6000602082840312156200017d57600080fd5b60006200018d8482850162000127565b91505092915050565b620001a181620001c4565b82525050565b6000602082019050620001be600083018462000196565b92915050565b6000620001d182620001f8565b9050919050565b60008115159050919050565b6000620001f182620001c4565b9050919050565b600073ffffffffffffffffffffffffffffffffffffffff82169050919050565b6200022381620001d8565b81146200022f57600080fd5b50565b6200023d81620001e4565b81146200024957600080fd5b50565b60805160601c6115576200027060003960008181608b015260b101526115576000f3fe608060405234801561001057600080fd5b50600436106100365760003560e01c80633a8298671461003b578063a3745f3a14610059575b600080fd5b610043610089565b6040516100509190610f76565b60405180910390f35b610073600480360381019061006e9190610c41565b6100ad565b6040516100809190611093565b60405180910390f35b7f000000000000000000000000000000000000000000000000000000000000000081565b60007f000000000000000000000000000000000000000000000000000000000000000073ffffffffffffffffffffffffffffffffffffffff1663fb04e17b876040518263ffffffff1660e01b81526004016101089190610ee7565b60206040518083038186803b15801561012057600080fd5b505afa158015610134573d6000803e3d6000fd5b505050506040513d601f19601f820116820180604052508101906101589190610c18565b610197576040517f08c379a000000000000000000000000000000000000000000000000000000000815260040161018e90610fb3565b60405180910390fd5b60008573ffffffffffffffffffffffffffffffffffffffff166370a08231306040518263ffffffff1660e01b81526004016101d29190610ee7565b60206040518083038186803b1580156101ea57600080fd5b505afa1580156101fe573d6000803e3d6000fd5b505050506040513d601f19601f820116820180604052508101906102229190610ce2565b905083811015610267576040517f08c379a000000000000000000000000000000000000000000000000000000000815260040161025e90610fd3565b60405180910390fd5b60008573ffffffffffffffffffffffffffffffffffffffff166370a08231306040518263ffffffff1660e01b81526004016102a29190610ee7565b60206040518083038186803b1580156102ba57600080fd5b505afa1580156102ce573d6000803e3d6000fd5b505050506040513d601f19601f820116820180604052508101906102f29190610ce2565b905060008873ffffffffffffffffffffffffffffffffffffffff1663d2c4b5986040518163ffffffff1660e01b815260040160206040518083038186803b15801561033c57600080fd5b505afa158015610350573d6000803e3d6000fd5b505050506040513d601f19601f820116820180604052508101906103749190610bef565b90506103a181878a73ffffffffffffffffffffffffffffffffffffffff166106209092919063ffffffff16565b6103df6040518060400160405280601381526020017f537761702063616c6c20646174612069733a2000000000000000000000000000815250610741565b6103e88a6107da565b60008973ffffffffffffffffffffffffffffffffffffffff168b60405161040f9190610ed0565b6000604051808303816000865af19150503d806000811461044c576040519150601f19603f3d011682016040523d82523d6000602084013e610451565b606091505b5050905080610464573d6000803e3d6000fd5b8684610470919061119d565b8973ffffffffffffffffffffffffffffffffffffffff166370a08231306040518263ffffffff1660e01b81526004016104a99190610ee7565b60206040518083038186803b1580156104c157600080fd5b505afa1580156104d5573d6000803e3d6000fd5b505050506040513d601f19601f820116820180604052508101906104f99190610ce2565b14610539576040517f08c379a000000000000000000000000000000000000000000000000000000000815260040161053090611033565b60405180910390fd5b828873ffffffffffffffffffffffffffffffffffffffff166370a08231306040518263ffffffff1660e01b81526004016105739190610ee7565b60206040518083038186803b15801561058b57600080fd5b505afa15801561059f573d6000803e3d6000fd5b505050506040513d601f19601f820116820180604052508101906105c39190610ce2565b6105cd919061119d565b945085851015610612576040517f08c379a000000000000000000000000000000000000000000000000000000000815260040161060990611013565b60405180910390fd5b505050509695505050505050565b6000818473ffffffffffffffffffffffffffffffffffffffff1663dd62ed3e30866040518363ffffffff1660e01b815260040161065e929190610f02565b60206040518083038186803b15801561067657600080fd5b505afa15801561068a573d6000803e3d6000fd5b505050506040513d601f19601f820116820180604052508101906106ae9190610ce2565b6106b89190611147565b905061073b8463095ea7b360e01b85846040516024016106d9929190610f2b565b604051602081830303815290604052907bffffffffffffffffffffffffffffffffffffffffffffffffffffffff19166020820180517bffffffffffffffffffffffffffffffffffffffffffffffffffffffff8381831617835250505050610873565b50505050565b6107d7816040516024016107559190610f91565b6040516020818303038152906040527f41304fac000000000000000000000000000000000000000000000000000000007bffffffffffffffffffffffffffffffffffffffffffffffffffffffff19166020820180517bffffffffffffffffffffffffffffffffffffffffffffffffffffffff838183161783525050505061093a565b50565b610870816040516024016107ee9190610f54565b6040516020818303038152906040527f0be77f56000000000000000000000000000000000000000000000000000000007bffffffffffffffffffffffffffffffffffffffffffffffffffffffff19166020820180517bffffffffffffffffffffffffffffffffffffffffffffffffffffffff838183161783525050505061093a565b50565b60006108d5826040518060400160405280602081526020017f5361666545524332303a206c6f772d6c6576656c2063616c6c206661696c65648152508573ffffffffffffffffffffffffffffffffffffffff166109639092919063ffffffff16565b905060008151111561093557808060200190518101906108f59190610c18565b610934576040517f08c379a000000000000000000000000000000000000000000000000000000000815260040161092b90611073565b60405180910390fd5b5b505050565b60008151905060006a636f6e736f6c652e6c6f679050602083016000808483855afa5050505050565b6060610972848460008561097b565b90509392505050565b6060824710156109c0576040517f08c379a00000000000000000000000000000000000000000000000000000000081526004016109b790610ff3565b60405180910390fd5b6109c985610a8f565b610a08576040517f08c379a00000000000000000000000000000000000000000000000000000000081526004016109ff90611053565b60405180910390fd5b6000808673ffffffffffffffffffffffffffffffffffffffff168587604051610a319190610ed0565b60006040518083038185875af1925050503d8060008114610a6e576040519150601f19603f3d011682016040523d82523d6000602084013e610a73565b606091505b5091509150610a83828286610aa2565b92505050949350505050565b600080823b905060008111915050919050565b60608315610ab257829050610b02565b600083511115610ac55782518084602001fd5b816040517f08c379a0000000000000000000000000000000000000000000000000000000008152600401610af99190610f91565b60405180910390fd5b9392505050565b6000610b1c610b17846110d3565b6110ae565b905082815260208101848484011115610b3457600080fd5b610b3f848285611261565b509392505050565b600081519050610b56816114ae565b92915050565b600081519050610b6b816114c5565b92915050565b600082601f830112610b8257600080fd5b8135610b92848260208601610b09565b91505092915050565b600081359050610baa816114dc565b92915050565b600081359050610bbf816114f3565b92915050565b600081359050610bd48161150a565b92915050565b600081519050610be98161150a565b92915050565b600060208284031215610c0157600080fd5b6000610c0f84828501610b47565b91505092915050565b600060208284031215610c2a57600080fd5b6000610c3884828501610b5c565b91505092915050565b60008060008060008060c08789031215610c5a57600080fd5b600087013567ffffffffffffffff811115610c7457600080fd5b610c8089828a01610b71565b9650506020610c9189828a01610bb0565b9550506040610ca289828a01610b9b565b9450506060610cb389828a01610b9b565b9350506080610cc489828a01610bc5565b92505060a0610cd589828a01610bc5565b9150509295509295509295565b600060208284031215610cf457600080fd5b6000610d0284828501610bda565b91505092915050565b610d14816111d1565b82525050565b6000610d2582611104565b610d2f818561111a565b9350610d3f818560208601611270565b610d4881611332565b840191505092915050565b6000610d5e82611104565b610d68818561112b565b9350610d78818560208601611270565b80840191505092915050565b610d8d8161123d565b82525050565b6000610d9e8261110f565b610da88185611136565b9350610db8818560208601611270565b610dc181611332565b840191505092915050565b6000610dd9601083611136565b9150610de482611343565b602082019050919050565b6000610dfc602083611136565b9150610e078261136c565b602082019050919050565b6000610e1f602683611136565b9150610e2a82611395565b604082019050919050565b6000610e42601c83611136565b9150610e4d826113e4565b602082019050919050565b6000610e65601883611136565b9150610e708261140d565b602082019050919050565b6000610e88601d83611136565b9150610e9382611436565b602082019050919050565b6000610eab602a83611136565b9150610eb68261145f565b604082019050919050565b610eca81611233565b82525050565b6000610edc8284610d53565b915081905092915050565b6000602082019050610efc6000830184610d0b565b92915050565b6000604082019050610f176000830185610d0b565b610f246020830184610d0b565b9392505050565b6000604082019050610f406000830185610d0b565b610f4d6020830184610ec1565b9392505050565b60006020820190508181036000830152610f6e8184610d1a565b905092915050565b6000602082019050610f8b6000830184610d84565b92915050565b60006020820190508181036000830152610fab8184610d93565b905092915050565b60006020820190508181036000830152610fcc81610dcc565b9050919050565b60006020820190508181036000830152610fec81610def565b9050919050565b6000602082019050818103600083015261100c81610e12565b9050919050565b6000602082019050818103600083015261102c81610e35565b9050919050565b6000602082019050818103600083015261104c81610e58565b9050919050565b6000602082019050818103600083015261106c81610e7b565b9050919050565b6000602082019050818103600083015261108c81610e9e565b9050919050565b60006020820190506110a86000830184610ec1565b92915050565b60006110b86110c9565b90506110c482826112a3565b919050565b6000604051905090565b600067ffffffffffffffff8211156110ee576110ed611303565b5b6110f782611332565b9050602081019050919050565b600081519050919050565b600081519050919050565b600082825260208201905092915050565b600081905092915050565b600082825260208201905092915050565b600061115282611233565b915061115d83611233565b9250827fffffffffffffffffffffffffffffffffffffffffffffffffffffffffffffffff03821115611192576111916112d4565b5b828201905092915050565b60006111a882611233565b91506111b383611233565b9250828210156111c6576111c56112d4565b5b828203905092915050565b60006111dc82611213565b9050919050565b60008115159050919050565b60006111fa826111d1565b9050919050565b600061120c826111d1565b9050919050565b600073ffffffffffffffffffffffffffffffffffffffff82169050919050565b6000819050919050565b60006112488261124f565b9050919050565b600061125a82611213565b9050919050565b82818337600083830152505050565b60005b8381101561128e578082015181840152602081019050611273565b8381111561129d576000848401525b50505050565b6112ac82611332565b810181811067ffffffffffffffff821117156112cb576112ca611303565b5b80604052505050565b7f4e487b7100000000000000000000000000000000000000000000000000000000600052601160045260246000fd5b7f4e487b7100000000000000000000000000000000000000000000000000000000600052604160045260246000fd5b6000601f19601f8301169050919050565b7f494e56414c49445f415547555354555300000000000000000000000000000000600082015250565b7f494e53554646494349454e545f42414c414e43455f4245464f52455f53574150600082015250565b7f416464726573733a20696e73756666696369656e742062616c616e636520666f60008201527f722063616c6c0000000000000000000000000000000000000000000000000000602082015250565b7f494e53554646494349454e545f414d4f554e545f524543454956454400000000600082015250565b7f57524f4e475f42414c414e43455f41465445525f535741500000000000000000600082015250565b7f416464726573733a2063616c6c20746f206e6f6e2d636f6e7472616374000000600082015250565b7f5361666545524332303a204552433230206f7065726174696f6e20646964206e60008201527f6f74207375636365656400000000000000000000000000000000000000000000602082015250565b6114b7816111d1565b81146114c257600080fd5b50565b6114ce816111e3565b81146114d957600080fd5b50565b6114e5816111ef565b81146114f057600080fd5b50565b6114fc81611201565b811461150757600080fd5b50565b61151381611233565b811461151e57600080fd5b5056fea26469706673582212205d4aea9044b74ea595bcdd4a9e6782afaed1a5a025c86a4f5ae44847e8bf818564736f6c63430008040033",
  "linkReferences": {},
  "deployedLinkReferences": {}
}